{
  "contractName": "ThinkAlike",
  "abi": [
    {
      "constant": true,
      "inputs": [],
      "name": "owner",
      "outputs": [
        {
          "name": "",
          "type": "address"
        }
      ],
      "payable": false,
      "stateMutability": "view",
      "type": "function"
    },
    {
      "inputs": [],
      "payable": false,
      "stateMutability": "nonpayable",
      "type": "constructor"
    },
    {
      "constant": false,
      "inputs": [
        {
          "name": "combo",
          "type": "string"
        },
        {
          "name": "amount",
          "type": "uint256"
        }
      ],
      "name": "putStack",
      "outputs": [],
      "payable": true,
      "stateMutability": "payable",
      "type": "function"
    },
    {
      "constant": false,
      "inputs": [
        {
          "name": "winner",
          "type": "address"
        },
        {
          "name": "amount",
          "type": "uint256"
        }
      ],
      "name": "transferWinnings",
      "outputs": [],
      "payable": true,
      "stateMutability": "payable",
      "type": "function"
    },
    {
      "constant": false,
      "inputs": [
        {
          "name": "initiator",
          "type": "address"
        },
        {
          "name": "amount",
          "type": "uint256"
        },
        {
          "name": "gameId",
          "type": "string"
        },
        {
          "name": "options",
          "type": "string"
        }
      ],
      "name": "startGame",
      "outputs": [],
      "payable": true,
      "stateMutability": "payable",
      "type": "function"
    },
    {
      "constant": false,
      "inputs": [
        {
          "name": "caller",
          "type": "address"
        },
        {
          "name": "gameId",
          "type": "uint256"
        }
      ],
      "name": "checkIfWon",
      "outputs": [],
      "payable": false,
      "stateMutability": "nonpayable",
      "type": "function"
    }
  ],
  "bytecode": "0x608060405234801561001057600080fd5b5060008054600160a060020a031916331790556104ac806100326000396000f30060806040526004361061006c5763ffffffff7c01000000000000000000000000000000000000000000000000000000006000350416631396719981146100715780632c1d4aa0146100975780638da5cb5b146100e5578063df51cb0c14610123578063e8bffb33146101ca575b600080fd5b61009573ffffffffffffffffffffffffffffffffffffffff600435166024356101fb565b005b6040805160206004803580820135601f810184900484028501840190955284845261009594369492936024939284019190819084018382808284375094975050933594506102ae9350505050565b3480156100f157600080fd5b506100fa6103c3565b6040805173ffffffffffffffffffffffffffffffffffffffff9092168252519081900360200190f35b604080516020600460443581810135601f810184900484028501840190955284845261009594823573ffffffffffffffffffffffffffffffffffffffff1694602480359536959460649492019190819084018382808284375050604080516020601f89358b018035918201839004830284018301909452808352979a9998810197919650918201945092508291508401838280828437509497506103df9650505050505050565b3480156101d657600080fd5b5061009573ffffffffffffffffffffffffffffffffffffffff6004351660243561047c565b600054339073ffffffffffffffffffffffffffffffffffffffff1681146102a957604080517f08c379a000000000000000000000000000000000000000000000000000000000815260206004820152602b60248201527f4f6e6c79206f776e65722063616e2063616c6c20706572666f726d207468697360448201527f206f7065726174696f6e2e000000000000000000000000000000000000000000606482015290519081900360840190fd5b505050565b33816000811161034557604080517f08c379a000000000000000000000000000000000000000000000000000000000815260206004820152602860248201527f537461636b656420616d6f756e742073686f756c64206265206772656174657260448201527f207468616e20302e000000000000000000000000000000000000000000000000606482015290519081900360840190fd5b8260016000866040518082805190602001908083835b6020831061037a5780518252601f19909201916020918201910161035b565b6001836020036101000a03801982511681845116808217855250505050505090500191505060405180910390206001900481526020019081526020016000208190555050505050565b60005473ffffffffffffffffffffffffffffffffffffffff1681565b826000811161047557604080517f08c379a000000000000000000000000000000000000000000000000000000000815260206004820152602860248201527f537461636b656420616d6f756e742073686f756c64206265206772656174657260448201527f207468616e20302e000000000000000000000000000000000000000000000000606482015290519081900360840190fd5b5050505050565b50505600a165627a7a72305820eda97c8f6dbcaec5cdb36148ec9a3abcd81e51befab15bb30617be80286e0f250029",
  "source": "pragma solidity ^0.4.24;\n\n/** Contract for the dapp based on wisdom of crowd and game theory */\ncontract ThinkAlike {\n    address public owner;\n    enum Status {CLOSED, OPEN}\n    mapping (uint => uint) stackToValue;\n    struct Game {\n        uint id;\n        uint32 votes;\n        Status status;\n    }\n   \n    /** stacker should stake only once */\n    modifier onlyOnce(address stacker){\n        //require(addressToStack[stacker] != 0, \"Stack should be placed only once.\");\n        _;\n    }\n\n    /** stacker should stack with greater than 0 value */\n    modifier notNullAmount(uint amount){\n        require(amount > 0, \"Stacked amount should be greater than 0.\");\n        _;\n    }\n\n    modifier onlyOwner(address caller){\n        require(caller == owner, \"Only owner can call perform this operation.\");\n        _;\n    }\n\n    constructor() public{\n        owner = msg.sender;\n    }\n\n    function putStack(string combo, uint amount) public onlyOnce(msg.sender) notNullAmount(amount) payable{\n        stackToValue[uint(keccak256(combo))] = amount;\n    }\n\n    function transferWinnings(address winner, uint amount) public onlyOwner(msg.sender) payable{\n\n    }\n    function startGame(address initiator, uint amount, string gameId, string options) public notNullAmount(amount) payable{\n        //validate that msg.value has value\n    }\n    function checkIfWon(address caller, uint gameId) public {\n\n    }\n}",
  "sourcePath": "/Users/manan/projects/practise/truffle/react-box/contracts/ThinkAlike.sol",
  "compiler": {
    "name": "solc",
    "version": "0.4.24+commit.e67f0147.Emscripten.clang"
  },
  "schemaVersion": "2.0.1",
  "updatedAt": "2018-09-24T21:51:38.080Z"
}